{
  "_format": "hh-sol-artifact-1",
  "contractName": "PaymentManager",
  "sourceName": "contracts/PaymentManager.sol",
  "abi": [
    {
      "inputs": [],
      "stateMutability": "nonpayable",
      "type": "constructor"
    },
    {
      "anonymous": false,
      "inputs": [
        {
          "indexed": true,
          "internalType": "address",
          "name": "from",
          "type": "address"
        },
        {
          "indexed": false,
          "internalType": "uint256",
          "name": "totalSent",
          "type": "uint256"
        },
        {
          "indexed": false,
          "internalType": "uint256",
          "name": "refunded",
          "type": "uint256"
        }
      ],
      "name": "BatchCompleted",
      "type": "event"
    },
    {
      "anonymous": false,
      "inputs": [
        {
          "indexed": true,
          "internalType": "address",
          "name": "previousOwner",
          "type": "address"
        },
        {
          "indexed": true,
          "internalType": "address",
          "name": "newOwner",
          "type": "address"
        }
      ],
      "name": "OwnershipTransferred",
      "type": "event"
    },
    {
      "anonymous": false,
      "inputs": [
        {
          "indexed": true,
          "internalType": "address",
          "name": "from",
          "type": "address"
        },
        {
          "indexed": true,
          "internalType": "address",
          "name": "to",
          "type": "address"
        },
        {
          "indexed": false,
          "internalType": "uint256",
          "name": "amount",
          "type": "uint256"
        }
      ],
      "name": "PaymentSent",
      "type": "event"
    },
    {
      "anonymous": false,
      "inputs": [
        {
          "indexed": true,
          "internalType": "address",
          "name": "to",
          "type": "address"
        },
        {
          "indexed": false,
          "internalType": "uint256",
          "name": "amount",
          "type": "uint256"
        }
      ],
      "name": "Refunded",
      "type": "event"
    },
    {
      "anonymous": false,
      "inputs": [
        {
          "indexed": true,
          "internalType": "address",
          "name": "to",
          "type": "address"
        },
        {
          "indexed": false,
          "internalType": "uint256",
          "name": "amount",
          "type": "uint256"
        }
      ],
      "name": "Withdrawn",
      "type": "event"
    },
    {
      "stateMutability": "payable",
      "type": "fallback"
    },
    {
      "inputs": [
        {
          "internalType": "address payable[]",
          "name": "toWallets",
          "type": "address[]"
        },
        {
          "internalType": "uint256[]",
          "name": "amounts",
          "type": "uint256[]"
        }
      ],
      "name": "batchPaymentToWallets",
      "outputs": [],
      "stateMutability": "payable",
      "type": "function"
    },
    {
      "inputs": [],
      "name": "contractBalance",
      "outputs": [
        {
          "internalType": "uint256",
          "name": "",
          "type": "uint256"
        }
      ],
      "stateMutability": "view",
      "type": "function"
    },
    {
      "inputs": [],
      "name": "owner",
      "outputs": [
        {
          "internalType": "address",
          "name": "",
          "type": "address"
        }
      ],
      "stateMutability": "view",
      "type": "function"
    },
    {
      "inputs": [
        {
          "internalType": "address payable",
          "name": "toWallet",
          "type": "address"
        }
      ],
      "name": "sendPaymentFromWallet",
      "outputs": [],
      "stateMutability": "payable",
      "type": "function"
    },
    {
      "inputs": [
        {
          "internalType": "address payable",
          "name": "toWallet",
          "type": "address"
        }
      ],
      "name": "sendPaymentToWallet",
      "outputs": [],
      "stateMutability": "payable",
      "type": "function"
    },
    {
      "inputs": [
        {
          "internalType": "address",
          "name": "newOwner",
          "type": "address"
        }
      ],
      "name": "transferOwnership",
      "outputs": [],
      "stateMutability": "nonpayable",
      "type": "function"
    },
    {
      "inputs": [],
      "name": "withdrawAll",
      "outputs": [],
      "stateMutability": "nonpayable",
      "type": "function"
    },
    {
      "inputs": [
        {
          "internalType": "uint256",
          "name": "amount",
          "type": "uint256"
        }
      ],
      "name": "withdrawAmount",
      "outputs": [],
      "stateMutability": "nonpayable",
      "type": "function"
    },
    {
      "stateMutability": "payable",
      "type": "receive"
    }
  ],
  "bytecode": "0x6080604052348015600f57600080fd5b50336000806101000a81548173ffffffffffffffffffffffffffffffffffffffff021916908373ffffffffffffffffffffffffffffffffffffffff1602179055506001600060146101000a81548160ff021916908360ff160217905550611d0a8061007b6000396000f3fe60806040526004361061007f5760003560e01c80638da5cb5b1161004e5780638da5cb5b14610109578063a24ffe5514610134578063b9a2103214610150578063f2fde38b1461016c57610080565b80630562b9f714610082578063853828b6146100ab57806386d3fac9146100c25780638b7afe2e146100de57610080565b5b005b34801561008e57600080fd5b506100a960048036038101906100a49190611287565b610195565b005b3480156100b757600080fd5b506100c0610435565b005b6100dc60048036038101906100d7919061136f565b6106da565b005b3480156100ea57600080fd5b506100f3610bb3565b60405161010091906113ff565b60405180910390f35b34801561011557600080fd5b5061011e610bbb565b60405161012b919061145b565b60405180910390f35b61014e600480360381019061014991906114b4565b610bdf565b005b61016a600480360381019061016591906114b4565b610e36565b005b34801561017857600080fd5b50610193600480360381019061018e919061150d565b61108d565b005b60008054906101000a900473ffffffffffffffffffffffffffffffffffffffff1673ffffffffffffffffffffffffffffffffffffffff163373ffffffffffffffffffffffffffffffffffffffff1614610223576040517f08c379a000000000000000000000000000000000000000000000000000000000815260040161021a90611597565b60405180910390fd5b600260ff16600060149054906101000a900460ff1660ff160361027b576040517f08c379a000000000000000000000000000000000000000000000000000000000815260040161027290611603565b60405180910390fd5b6002600060146101000a81548160ff021916908360ff160217905550478111156102da576040517f08c379a00000000000000000000000000000000000000000000000000000000081526004016102d19061166f565b60405180910390fd5b60008060009054906101000a900473ffffffffffffffffffffffffffffffffffffffff1673ffffffffffffffffffffffffffffffffffffffff1682604051610321906116c0565b60006040518083038185875af1925050503d806000811461035e576040519150601f19603f3d011682016040523d82523d6000602084013e610363565b606091505b50509050806103a7576040517f08c379a000000000000000000000000000000000000000000000000000000000815260040161039e90611721565b60405180910390fd5b60008054906101000a900473ffffffffffffffffffffffffffffffffffffffff1673ffffffffffffffffffffffffffffffffffffffff167f7084f5476618d8e60b11ef0d7d3f06914655adb8793e28ff7f018d4c76d505d58360405161040d91906113ff565b60405180910390a2506001600060146101000a81548160ff021916908360ff16021790555050565b60008054906101000a900473ffffffffffffffffffffffffffffffffffffffff1673ffffffffffffffffffffffffffffffffffffffff163373ffffffffffffffffffffffffffffffffffffffff16146104c3576040517f08c379a00000000000000000000000000000000000000000000000000000000081526004016104ba90611597565b60405180910390fd5b600260ff16600060149054906101000a900460ff1660ff160361051b576040517f08c379a000000000000000000000000000000000000000000000000000000000815260040161051290611603565b60405180910390fd5b6002600060146101000a81548160ff021916908360ff16021790555060004790506000811161057f576040517f08c379a00000000000000000000000000000000000000000000000000000000081526004016105769061178d565b60405180910390fd5b60008060009054906101000a900473ffffffffffffffffffffffffffffffffffffffff1673ffffffffffffffffffffffffffffffffffffffff16826040516105c6906116c0565b60006040518083038185875af1925050503d8060008114610603576040519150601f19603f3d011682016040523d82523d6000602084013e610608565b606091505b505090508061064c576040517f08c379a000000000000000000000000000000000000000000000000000000000815260040161064390611721565b60405180910390fd5b60008054906101000a900473ffffffffffffffffffffffffffffffffffffffff1673ffffffffffffffffffffffffffffffffffffffff167f7084f5476618d8e60b11ef0d7d3f06914655adb8793e28ff7f018d4c76d505d5836040516106b291906113ff565b60405180910390a250506001600060146101000a81548160ff021916908360ff160217905550565b600260ff16600060149054906101000a900460ff1660ff1603610732576040517f08c379a000000000000000000000000000000000000000000000000000000000815260040161072990611603565b60405180910390fd5b6002600060146101000a81548160ff021916908360ff160217905550600084849050905060008111610799576040517f08c379a0000000000000000000000000000000000000000000000000000000008152600401610790906117f9565b60405180910390fd5b8282905081146107de576040517f08c379a00000000000000000000000000000000000000000000000000000000081526004016107d590611865565b60405180910390fd5b60003490506000805b83811015610a3857600088888381811061080457610803611885565b5b905060200201602081019061081991906114b4565b905060008787848181106108305761082f611885565b5b905060200201359050600073ffffffffffffffffffffffffffffffffffffffff168273ffffffffffffffffffffffffffffffffffffffff16036108a8576040517f08c379a000000000000000000000000000000000000000000000000000000000815260040161089f90611900565b60405180910390fd5b600081036108b7575050610a2b565b808510156108fa576040517f08c379a00000000000000000000000000000000000000000000000000000000081526004016108f19061196c565b60405180910390fd5b808561090691906119bb565b9450808461091491906119ef565b935060008273ffffffffffffffffffffffffffffffffffffffff168260405161093c906116c0565b60006040518083038185875af1925050503d8060008114610979576040519150601f19603f3d011682016040523d82523d6000602084013e61097e565b606091505b50509050806109c2576040517f08c379a00000000000000000000000000000000000000000000000000000000081526004016109b990611a6f565b60405180910390fd5b8273ffffffffffffffffffffffffffffffffffffffff163373ffffffffffffffffffffffffffffffffffffffff167fd52bd61f7c422d441e024604f4517878fd3305d6acf0fe37baef23ed21af6bc984604051610a1f91906113ff565b60405180910390a35050505b80806001019150506107e7565b506000821115610b3e5760003373ffffffffffffffffffffffffffffffffffffffff1683604051610a68906116c0565b60006040518083038185875af1925050503d8060008114610aa5576040519150601f19603f3d011682016040523d82523d6000602084013e610aaa565b606091505b5050905080610aee576040517f08c379a0000000000000000000000000000000000000000000000000000000008152600401610ae590611adb565b60405180910390fd5b3373ffffffffffffffffffffffffffffffffffffffff167fd7dee2702d63ad89917b6a4da9981c90c4d24f8c2bdfd64c604ecae57d8d065184604051610b3491906113ff565b60405180910390a2505b3373ffffffffffffffffffffffffffffffffffffffff167fcc91cecbad4ff39ccfea6f7ba6a42d9e4ae0b0cd601c5f675b8c4251ec5d6fe98284604051610b86929190611afb565b60405180910390a25050506001600060146101000a81548160ff021916908360ff16021790555050505050565b600047905090565b60008054906101000a900473ffffffffffffffffffffffffffffffffffffffff1681565b600260ff16600060149054906101000a900460ff1660ff1603610c37576040517f08c379a0000000000000000000000000000000000000000000000000000000008152600401610c2e90611603565b60405180910390fd5b6002600060146101000a81548160ff021916908360ff16021790555060003411610c96576040517f08c379a0000000000000000000000000000000000000000000000000000000008152600401610c8d90611b70565b60405180910390fd5b600073ffffffffffffffffffffffffffffffffffffffff168173ffffffffffffffffffffffffffffffffffffffff1603610d05576040517f08c379a0000000000000000000000000000000000000000000000000000000008152600401610cfc90611bdc565b60405180910390fd5b60008173ffffffffffffffffffffffffffffffffffffffff1634604051610d2b906116c0565b60006040518083038185875af1925050503d8060008114610d68576040519150601f19603f3d011682016040523d82523d6000602084013e610d6d565b606091505b5050905080610db1576040517f08c379a0000000000000000000000000000000000000000000000000000000008152600401610da890611c48565b60405180910390fd5b8173ffffffffffffffffffffffffffffffffffffffff163373ffffffffffffffffffffffffffffffffffffffff167fd52bd61f7c422d441e024604f4517878fd3305d6acf0fe37baef23ed21af6bc934604051610e0e91906113ff565b60405180910390a3506001600060146101000a81548160ff021916908360ff16021790555050565b600260ff16600060149054906101000a900460ff1660ff1603610e8e576040517f08c379a0000000000000000000000000000000000000000000000000000000008152600401610e8590611603565b60405180910390fd5b6002600060146101000a81548160ff021916908360ff16021790555060003411610eed576040517f08c379a0000000000000000000000000000000000000000000000000000000008152600401610ee490611b70565b60405180910390fd5b600073ffffffffffffffffffffffffffffffffffffffff168173ffffffffffffffffffffffffffffffffffffffff1603610f5c576040517f08c379a0000000000000000000000000000000000000000000000000000000008152600401610f5390611bdc565b60405180910390fd5b60008173ffffffffffffffffffffffffffffffffffffffff1634604051610f82906116c0565b60006040518083038185875af1925050503d8060008114610fbf576040519150601f19603f3d011682016040523d82523d6000602084013e610fc4565b606091505b5050905080611008576040517f08c379a0000000000000000000000000000000000000000000000000000000008152600401610fff90611c48565b60405180910390fd5b8173ffffffffffffffffffffffffffffffffffffffff163373ffffffffffffffffffffffffffffffffffffffff167fd52bd61f7c422d441e024604f4517878fd3305d6acf0fe37baef23ed21af6bc93460405161106591906113ff565b60405180910390a3506001600060146101000a81548160ff021916908360ff16021790555050565b60008054906101000a900473ffffffffffffffffffffffffffffffffffffffff1673ffffffffffffffffffffffffffffffffffffffff163373ffffffffffffffffffffffffffffffffffffffff161461111b576040517f08c379a000000000000000000000000000000000000000000000000000000000815260040161111290611597565b60405180910390fd5b600073ffffffffffffffffffffffffffffffffffffffff168173ffffffffffffffffffffffffffffffffffffffff160361118a576040517f08c379a000000000000000000000000000000000000000000000000000000000815260040161118190611cb4565b60405180910390fd5b8073ffffffffffffffffffffffffffffffffffffffff1660008054906101000a900473ffffffffffffffffffffffffffffffffffffffff1673ffffffffffffffffffffffffffffffffffffffff167f8be0079c531659141344cd1fd0a4f28419497f9722a3daafe3b4186f6b6457e060405160405180910390a3806000806101000a81548173ffffffffffffffffffffffffffffffffffffffff021916908373ffffffffffffffffffffffffffffffffffffffff16021790555050565b600080fd5b600080fd5b6000819050919050565b61126481611251565b811461126f57600080fd5b50565b6000813590506112818161125b565b92915050565b60006020828403121561129d5761129c611247565b5b60006112ab84828501611272565b91505092915050565b600080fd5b600080fd5b600080fd5b60008083601f8401126112d9576112d86112b4565b5b8235905067ffffffffffffffff8111156112f6576112f56112b9565b5b602083019150836020820283011115611312576113116112be565b5b9250929050565b60008083601f84011261132f5761132e6112b4565b5b8235905067ffffffffffffffff81111561134c5761134b6112b9565b5b602083019150836020820283011115611368576113676112be565b5b9250929050565b6000806000806040858703121561138957611388611247565b5b600085013567ffffffffffffffff8111156113a7576113a661124c565b5b6113b3878288016112c3565b9450945050602085013567ffffffffffffffff8111156113d6576113d561124c565b5b6113e287828801611319565b925092505092959194509250565b6113f981611251565b82525050565b600060208201905061141460008301846113f0565b92915050565b600073ffffffffffffffffffffffffffffffffffffffff82169050919050565b60006114458261141a565b9050919050565b6114558161143a565b82525050565b6000602082019050611470600083018461144c565b92915050565b60006114818261141a565b9050919050565b61149181611476565b811461149c57600080fd5b50565b6000813590506114ae81611488565b92915050565b6000602082840312156114ca576114c9611247565b5b60006114d88482850161149f565b91505092915050565b6114ea8161143a565b81146114f557600080fd5b50565b600081359050611507816114e1565b92915050565b60006020828403121561152357611522611247565b5b6000611531848285016114f8565b91505092915050565b600082825260208201905092915050565b7f4f6e6c79206f776e657200000000000000000000000000000000000000000000600082015250565b6000611581600a8361153a565b915061158c8261154b565b602082019050919050565b600060208201905081810360008301526115b081611574565b9050919050565b7f5265656e7472616e637947756172643a207265656e7472616e742063616c6c00600082015250565b60006115ed601f8361153a565b91506115f8826115b7565b602082019050919050565b6000602082019050818103600083015261161c816115e0565b9050919050565b7f496e73756666696369656e7420636f6e74726163742062616c616e6365000000600082015250565b6000611659601d8361153a565b915061166482611623565b602082019050919050565b600060208201905081810360008301526116888161164c565b9050919050565b600081905092915050565b50565b60006116aa60008361168f565b91506116b58261169a565b600082019050919050565b60006116cb8261169d565b9150819050919050565b7f5769746864726177206661696c65640000000000000000000000000000000000600082015250565b600061170b600f8361153a565b9150611716826116d5565b602082019050919050565b6000602082019050818103600083015261173a816116fe565b9050919050565b7f4e6f2062616c616e636500000000000000000000000000000000000000000000600082015250565b6000611777600a8361153a565b915061178282611741565b602082019050919050565b600060208201905081810360008301526117a68161176a565b9050919050565b7f4e6f20726563697069656e747300000000000000000000000000000000000000600082015250565b60006117e3600d8361153a565b91506117ee826117ad565b602082019050919050565b60006020820190508181036000830152611812816117d6565b9050919050565b7f4c656e677468206d69736d617463680000000000000000000000000000000000600082015250565b600061184f600f8361153a565b915061185a82611819565b602082019050919050565b6000602082019050818103600083015261187e81611842565b9050919050565b7f4e487b7100000000000000000000000000000000000000000000000000000000600052603260045260246000fd5b7f496e76616c696420726563697069656e74206164647265737300000000000000600082015250565b60006118ea60198361153a565b91506118f5826118b4565b602082019050919050565b60006020820190508181036000830152611919816118dd565b9050919050565b7f496e73756666696369656e74206d73672e76616c756520666f72206261746368600082015250565b600061195660208361153a565b915061196182611920565b602082019050919050565b6000602082019050818103600083015261198581611949565b9050919050565b7f4e487b7100000000000000000000000000000000000000000000000000000000600052601160045260246000fd5b60006119c682611251565b91506119d183611251565b92508282039050818111156119e9576119e861198c565b5b92915050565b60006119fa82611251565b9150611a0583611251565b9250828201905080821115611a1d57611a1c61198c565b5b92915050565b7f5472616e7366657220746f20726563697069656e74206661696c656400000000600082015250565b6000611a59601c8361153a565b9150611a6482611a23565b602082019050919050565b60006020820190508181036000830152611a8881611a4c565b9050919050565b7f526566756e64206661696c656400000000000000000000000000000000000000600082015250565b6000611ac5600d8361153a565b9150611ad082611a8f565b602082019050919050565b60006020820190508181036000830152611af481611ab8565b9050919050565b6000604082019050611b1060008301856113f0565b611b1d60208301846113f0565b9392505050565b7f5061796d656e74206d757374206265203e203000000000000000000000000000600082015250565b6000611b5a60138361153a565b9150611b6582611b24565b602082019050919050565b60006020820190508181036000830152611b8981611b4d565b9050919050565b7f496e76616c696420726563697069656e74000000000000000000000000000000600082015250565b6000611bc660118361153a565b9150611bd182611b90565b602082019050919050565b60006020820190508181036000830152611bf581611bb9565b9050919050565b7f5472616e73666572206661696c65640000000000000000000000000000000000600082015250565b6000611c32600f8361153a565b9150611c3d82611bfc565b602082019050919050565b60006020820190508181036000830152611c6181611c25565b9050919050565b7f5a65726f206f776e657200000000000000000000000000000000000000000000600082015250565b6000611c9e600a8361153a565b9150611ca982611c68565b602082019050919050565b60006020820190508181036000830152611ccd81611c91565b905091905056fea26469706673582212204b326c16a2201917e207f5d292d3fb9c672537257f42901ddab8f9f39c8ab88f64736f6c634300081c0033",
  "linkReferences": {},
  "deployedLinkReferences": {}
}